{
  "_format": "hh-sol-artifact-1",
  "contractName": "GeneralElection",
  "sourceName": "contracts/general_election.sol",
  "abi": [
    {
      "inputs": [],
      "stateMutability": "nonpayable",
      "type": "constructor"
    },
    {
      "anonymous": false,
      "inputs": [
        {
          "indexed": false,
          "internalType": "address",
          "name": "from",
          "type": "address"
        },
        {
          "indexed": false,
          "internalType": "string",
          "name": "message",
          "type": "string"
        }
      ],
      "name": "Voted",
      "type": "event"
    },
    {
      "inputs": [],
      "name": "checkOvervoting",
      "outputs": [
        {
          "internalType": "uint256",
          "name": "",
          "type": "uint256"
        }
      ],
      "stateMutability": "view",
      "type": "function"
    },
    {
      "inputs": [
        {
          "internalType": "string",
          "name": "_party",
          "type": "string"
        }
      ],
      "name": "getPartyVotes",
      "outputs": [
        {
          "internalType": "uint256",
          "name": "",
          "type": "uint256"
        }
      ],
      "stateMutability": "view",
      "type": "function"
    },
    {
      "inputs": [],
      "name": "getTotalVotes",
      "outputs": [
        {
          "internalType": "uint256",
          "name": "",
          "type": "uint256"
        }
      ],
      "stateMutability": "view",
      "type": "function"
    },
    {
      "inputs": [
        {
          "internalType": "uint256",
          "name": "",
          "type": "uint256"
        }
      ],
      "name": "parties",
      "outputs": [
        {
          "internalType": "string",
          "name": "",
          "type": "string"
        }
      ],
      "stateMutability": "view",
      "type": "function"
    },
    {
      "inputs": [
        {
          "internalType": "string",
          "name": "_party",
          "type": "string"
        }
      ],
      "name": "validateParty",
      "outputs": [
        {
          "internalType": "bool",
          "name": "",
          "type": "bool"
        }
      ],
      "stateMutability": "view",
      "type": "function"
    },
    {
      "inputs": [
        {
          "internalType": "string",
          "name": "_party",
          "type": "string"
        }
      ],
      "name": "voteForParty",
      "outputs": [],
      "stateMutability": "nonpayable",
      "type": "function"
    },
    {
      "inputs": [
        {
          "internalType": "string",
          "name": "",
          "type": "string"
        }
      ],
      "name": "votecast",
      "outputs": [
        {
          "internalType": "uint256",
          "name": "",
          "type": "uint256"
        }
      ],
      "stateMutability": "view",
      "type": "function"
    }
  ],
  "bytecode": "0x60806040523480156200001157600080fd5b5060405180606001604052806040518060400160405280600781526020017f506172747920410000000000000000000000000000000000000000000000000081525081526020016040518060400160405280600781526020017f506172747920420000000000000000000000000000000000000000000000000081525081526020016040518060400160405280600781526020017f50617274792043000000000000000000000000000000000000000000000000008152508152506000906003620000de9291906200014c565b5060405180604001604052806000151581526020016000815250600660008201518160000160006101000a81548160ff021916908315150217905550602082015181600101559050506040518060200160405280600081525060056000820151816000015590505062000336565b828054828255906000526020600020908101928215620001a0579160200282015b828111156200019f5782518290805190602001906200018e929190620001b3565b50916020019190600101906200016d565b5b509050620001af919062000244565b5090565b828054620001c190620002d1565b90600052602060002090601f016020900481019282620001e5576000855562000231565b82601f106200020057805160ff191683800117855562000231565b8280016001018555821562000231579182015b828111156200023057825182559160200191906001019062000213565b5b5090506200024091906200026c565b5090565b5b808211156200026857600081816200025e91906200028b565b5060010162000245565b5090565b5b80821115620002875760008160009055506001016200026d565b5090565b5080546200029990620002d1565b6000825580601f10620002ad5750620002ce565b601f016020900490600052602060002090810190620002cd91906200026c565b5b50565b60006002820490506001821680620002ea57607f821691505b6020821081141562000301576200030062000307565b5b50919050565b7f4e487b7100000000000000000000000000000000000000000000000000000000600052602260045260246000fd5b610ba480620003466000396000f3fe608060405234801561001057600080fd5b506004361061007d5760003560e01c80639a0e7d661161005b5780639a0e7d6614610112578063c2b4065314610130578063cc6346311461014c578063efee03e61461016a5761007d565b8063030d2243146100825780635f885792146100b257806370651a18146100e2575b600080fd5b61009c60048036038101906100979190610543565b61019a565b6040516100a99190610805565b60405180910390f35b6100cc60048036038101906100c79190610543565b610210565b6040516100d99190610805565b60405180910390f35b6100fc60048036038101906100f79190610584565b61023e565b60405161010991906107a3565b60405180910390f35b61011a6102ea565b6040516101279190610805565b60405180910390f35b61014a60048036038101906101459190610543565b6102f7565b005b6101546103e5565b6040516101619190610805565b60405180910390f35b610184600480360381019061017f9190610543565b6103f2565b6040516101919190610788565b60405180910390f35b60006101a5826103f2565b156101d0576001826040516101ba919061072c565b908152602001604051809103902054905061020b565b6040517f08c379a0000000000000000000000000000000000000000000000000000000008152600401610202906107c5565b60405180910390fd5b919050565b6001818051602081018201805184825260208301602085012081835280955050505050506000915090505481565b6000818154811061024e57600080fd5b90600052602060002001600091509050805461026990610992565b80601f016020809104026020016040519081016040528092919081815260200182805461029590610992565b80156102e25780601f106102b7576101008083540402835291602001916102e2565b820191906000526020600020905b8154815290600101906020018083116102c557829003601f168201915b505050505081565b6000600560000154905090565b60006006600101541461033f576040517f08c379a0000000000000000000000000000000000000000000000000000000008152600401610336906107e5565b60405180910390fd5b610348816103f2565b156103e2576001808260405161035e919061072c565b9081526020016040518091039020600082825461037b91906108b2565b9250508190555060016005600001600082825461039891906108b2565b9250508190555060016006600101819055507fcb6783276e8a4347387036bbfea000268f0a4b1f8c46ac79980609f2af8d2acd336040516103d9919061075a565b60405180910390a15b50565b6000600660010154905090565b600080600090505b6000805490508110156104bb5782604051602001610418919061072c565b6040516020818303038152906040528051906020012060008281548110610468577f4e487b7100000000000000000000000000000000000000000000000000000000600052603260045260246000fd5b906000526020600020016040516020016104829190610743565b6040516020818303038152906040528051906020012014156104a85760019150506104c1565b80806104b3906109f5565b9150506103fa565b50600090505b919050565b60006104d96104d484610845565b610820565b9050828152602081018484840111156104f157600080fd5b6104fc848285610950565b509392505050565b600082601f83011261051557600080fd5b81356105258482602086016104c6565b91505092915050565b60008135905061053d81610b57565b92915050565b60006020828403121561055557600080fd5b600082013567ffffffffffffffff81111561056f57600080fd5b61057b84828501610504565b91505092915050565b60006020828403121561059657600080fd5b60006105a48482850161052e565b91505092915050565b6105b681610908565b82525050565b6105c58161091a565b82525050565b60006105d68261088b565b6105e08185610896565b93506105f081856020860161095f565b6105f981610acb565b840191505092915050565b600061060f8261088b565b61061981856108a7565b935061062981856020860161095f565b80840191505092915050565b6000815461064281610992565b61064c81866108a7565b945060018216600081146106675760018114610678576106ab565b60ff198316865281860193506106ab565b61068185610876565b60005b838110156106a357815481890152600182019150602081019050610684565b838801955050505b50505092915050565b60006106c1601983610896565b91506106cc82610adc565b602082019050919050565b60006106e4600d83610896565b91506106ef82610b05565b602082019050919050565b6000610707601283610896565b915061071282610b2e565b602082019050919050565b61072681610946565b82525050565b60006107388284610604565b915081905092915050565b600061074f8284610635565b915081905092915050565b600060408201905061076f60008301846105ad565b8181036020830152610780816106b4565b905092915050565b600060208201905061079d60008301846105bc565b92915050565b600060208201905081810360008301526107bd81846105cb565b905092915050565b600060208201905081810360008301526107de816106d7565b9050919050565b600060208201905081810360008301526107fe816106fa565b9050919050565b600060208201905061081a600083018461071d565b92915050565b600061082a61083b565b905061083682826109c4565b919050565b6000604051905090565b600067ffffffffffffffff8211156108605761085f610a9c565b5b61086982610acb565b9050602081019050919050565b60008190508160005260206000209050919050565b600081519050919050565b600082825260208201905092915050565b600081905092915050565b60006108bd82610946565b91506108c883610946565b9250827fffffffffffffffffffffffffffffffffffffffffffffffffffffffffffffffff038211156108fd576108fc610a3e565b5b828201905092915050565b600061091382610926565b9050919050565b60008115159050919050565b600073ffffffffffffffffffffffffffffffffffffffff82169050919050565b6000819050919050565b82818337600083830152505050565b60005b8381101561097d578082015181840152602081019050610962565b8381111561098c576000848401525b50505050565b600060028204905060018216806109aa57607f821691505b602082108114156109be576109bd610a6d565b5b50919050565b6109cd82610acb565b810181811067ffffffffffffffff821117156109ec576109eb610a9c565b5b80604052505050565b6000610a0082610946565b91507fffffffffffffffffffffffffffffffffffffffffffffffffffffffffffffffff821415610a3357610a32610a3e565b5b600182019050919050565b7f4e487b7100000000000000000000000000000000000000000000000000000000600052601160045260246000fd5b7f4e487b7100000000000000000000000000000000000000000000000000000000600052602260045260246000fd5b7f4e487b7100000000000000000000000000000000000000000000000000000000600052604160045260246000fd5b6000601f19601f8301169050919050565b7f766f7465207265636f72646564207375636365737366756c7900000000000000600082015250565b7f696e76616c696420706172747900000000000000000000000000000000000000600082015250565b7f63616e20766f7465206f6e6c79206f6e63650000000000000000000000000000600082015250565b610b6081610946565b8114610b6b57600080fd5b5056fea26469706673582212206b742eef376f3bc6fda393939b165597ccef317f96749897b897bcc7d517c34e64736f6c63430008040033",
  "linkReferences": {},
  "deployedLinkReferences": {}
}