{
  "_format": "hh-sol-artifact-1",
  "contractName": "GeneralElection",
  "sourceName": "contracts/general_election.sol",
  "abi": [
    {
      "inputs": [
        {
          "internalType": "string[]",
          "name": "_parties",
          "type": "string[]"
        }
      ],
      "stateMutability": "nonpayable",
      "type": "constructor"
    },
    {
      "anonymous": false,
      "inputs": [
        {
          "indexed": false,
          "internalType": "address",
          "name": "from",
          "type": "address"
        },
        {
          "indexed": false,
          "internalType": "string",
          "name": "message",
          "type": "string"
        }
      ],
      "name": "Voted",
      "type": "event"
    },
    {
      "inputs": [
        {
          "internalType": "string",
          "name": "_party",
          "type": "string"
        }
      ],
      "name": "getPartyVotes",
      "outputs": [
        {
          "internalType": "uint256",
          "name": "",
          "type": "uint256"
        }
      ],
      "stateMutability": "view",
      "type": "function"
    },
    {
      "inputs": [],
      "name": "getTotalVotes",
      "outputs": [
        {
          "internalType": "uint256",
          "name": "",
          "type": "uint256"
        }
      ],
      "stateMutability": "view",
      "type": "function"
    },
    {
      "inputs": [
        {
          "internalType": "uint256",
          "name": "",
          "type": "uint256"
        }
      ],
      "name": "parties",
      "outputs": [
        {
          "internalType": "string",
          "name": "",
          "type": "string"
        }
      ],
      "stateMutability": "view",
      "type": "function"
    },
    {
      "inputs": [
        {
          "internalType": "string",
          "name": "_party",
          "type": "string"
        }
      ],
      "name": "validateParty",
      "outputs": [
        {
          "internalType": "bool",
          "name": "",
          "type": "bool"
        }
      ],
      "stateMutability": "view",
      "type": "function"
    },
    {
      "inputs": [
        {
          "internalType": "string",
          "name": "_party",
          "type": "string"
        }
      ],
      "name": "voteForParty",
      "outputs": [],
      "stateMutability": "nonpayable",
      "type": "function"
    },
    {
      "inputs": [
        {
          "internalType": "string",
          "name": "",
          "type": "string"
        }
      ],
      "name": "votecast",
      "outputs": [
        {
          "internalType": "uint256",
          "name": "",
          "type": "uint256"
        }
      ],
      "stateMutability": "view",
      "type": "function"
    }
  ],
  "bytecode": "0x608060405260405180606001604052803373ffffffffffffffffffffffffffffffffffffffff1681526020016000151581526020016000815250600660008201518160000160006101000a81548173ffffffffffffffffffffffffffffffffffffffff021916908373ffffffffffffffffffffffffffffffffffffffff16021790555060208201518160000160146101000a81548160ff021916908315150217905550604082015181600101555050348015620000bb57600080fd5b5060405162001140380380620011408339818101604052810190620000e19190620003d4565b8060009080519060200190620000f992919062000120565b506040518060200160405280600081525060056000820151816000015590505050620005b8565b82805482825590600052602060002090810192821562000174579160200282015b82811115620001735782518290805190602001906200016292919062000187565b509160200191906001019062000141565b5b50905062000183919062000218565b5090565b8280546200019590620004dd565b90600052602060002090601f016020900481019282620001b9576000855562000205565b82601f10620001d457805160ff191683800117855562000205565b8280016001018555821562000205579182015b8281111562000204578251825591602001919060010190620001e7565b5b50905062000214919062000240565b5090565b5b808211156200023c57600081816200023291906200025f565b5060010162000219565b5090565b5b808211156200025b57600081600090555060010162000241565b5090565b5080546200026d90620004dd565b6000825580601f10620002815750620002a2565b601f016020900490600052602060002090810190620002a1919062000240565b5b50565b6000620002bc620002b68462000442565b62000419565b90508083825260208201905082856020860282011115620002dc57600080fd5b60005b858110156200032b57815167ffffffffffffffff8111156200030057600080fd5b8086016200030f8982620003a7565b85526020850194506020840193505050600181019050620002df565b5050509392505050565b60006200034c620003468462000471565b62000419565b9050828152602081018484840111156200036557600080fd5b62000372848285620004a7565b509392505050565b600082601f8301126200038c57600080fd5b81516200039e848260208601620002a5565b91505092915050565b600082601f830112620003b957600080fd5b8151620003cb84826020860162000335565b91505092915050565b600060208284031215620003e757600080fd5b600082015167ffffffffffffffff8111156200040257600080fd5b62000410848285016200037a565b91505092915050565b60006200042562000438565b905062000433828262000513565b919050565b6000604051905090565b600067ffffffffffffffff82111562000460576200045f62000578565b5b602082029050602081019050919050565b600067ffffffffffffffff8211156200048f576200048e62000578565b5b6200049a82620005a7565b9050602081019050919050565b60005b83811015620004c7578082015181840152602081019050620004aa565b83811115620004d7576000848401525b50505050565b60006002820490506001821680620004f657607f821691505b602082108114156200050d576200050c62000549565b5b50919050565b6200051e82620005a7565b810181811067ffffffffffffffff8211171562000540576200053f62000578565b5b80604052505050565b7f4e487b7100000000000000000000000000000000000000000000000000000000600052602260045260246000fd5b7f4e487b7100000000000000000000000000000000000000000000000000000000600052604160045260246000fd5b6000601f19601f8301169050919050565b610b7880620005c86000396000f3fe608060405234801561001057600080fd5b50600436106100625760003560e01c8063030d2243146100675780635f8857921461009757806370651a18146100c75780639a0e7d66146100f7578063c2b4065314610115578063efee03e614610131575b600080fd5b610081600480360381019061007c9190610517565b610161565b60405161008e91906107d9565b60405180910390f35b6100b160048036038101906100ac9190610517565b6101d7565b6040516100be91906107d9565b60405180910390f35b6100e160048036038101906100dc9190610558565b610205565b6040516100ee9190610777565b60405180910390f35b6100ff6102b1565b60405161010c91906107d9565b60405180910390f35b61012f600480360381019061012a9190610517565b6102be565b005b61014b60048036038101906101469190610517565b6103c6565b604051610158919061075c565b60405180910390f35b600061016c826103c6565b15610197576001826040516101819190610700565b90815260200160405180910390205490506101d2565b6040517f08c379a00000000000000000000000000000000000000000000000000000000081526004016101c990610799565b60405180910390fd5b919050565b6001818051602081018201805184825260208301602085012081835280955050505050506000915090505481565b6000818154811061021557600080fd5b90600052602060002001600091509050805461023090610966565b80601f016020809104026020016040519081016040528092919081815260200182805461025c90610966565b80156102a95780601f1061027e576101008083540402835291602001916102a9565b820191906000526020600020905b81548152906001019060200180831161028c57829003601f168201915b505050505081565b6000600560000154905090565b600060066001015414610306576040517f08c379a00000000000000000000000000000000000000000000000000000000081526004016102fd906107b9565b60405180910390fd5b61030f816103c6565b156103c357600180826040516103259190610700565b908152602001604051809103902060008282546103429190610886565b9250508190555060016005600001600082825461035f9190610886565b925050819055507fcb6783276e8a4347387036bbfea000268f0a4b1f8c46ac79980609f2af8d2acd600660000160009054906101000a900473ffffffffffffffffffffffffffffffffffffffff166040516103ba919061072e565b60405180910390a15b50565b600080600090505b60008054905081101561048f57826040516020016103ec9190610700565b604051602081830303815290604052805190602001206000828154811061043c577f4e487b7100000000000000000000000000000000000000000000000000000000600052603260045260246000fd5b906000526020600020016040516020016104569190610717565b60405160208183030381529060405280519060200120141561047c576001915050610495565b8080610487906109c9565b9150506103ce565b50600090505b919050565b60006104ad6104a884610819565b6107f4565b9050828152602081018484840111156104c557600080fd5b6104d0848285610924565b509392505050565b600082601f8301126104e957600080fd5b81356104f984826020860161049a565b91505092915050565b60008135905061051181610b2b565b92915050565b60006020828403121561052957600080fd5b600082013567ffffffffffffffff81111561054357600080fd5b61054f848285016104d8565b91505092915050565b60006020828403121561056a57600080fd5b600061057884828501610502565b91505092915050565b61058a816108dc565b82525050565b610599816108ee565b82525050565b60006105aa8261085f565b6105b4818561086a565b93506105c4818560208601610933565b6105cd81610a9f565b840191505092915050565b60006105e38261085f565b6105ed818561087b565b93506105fd818560208601610933565b80840191505092915050565b6000815461061681610966565b610620818661087b565b9450600182166000811461063b576001811461064c5761067f565b60ff1983168652818601935061067f565b6106558561084a565b60005b8381101561067757815481890152600182019150602081019050610658565b838801955050505b50505092915050565b600061069560198361086a565b91506106a082610ab0565b602082019050919050565b60006106b8600d8361086a565b91506106c382610ad9565b602082019050919050565b60006106db60128361086a565b91506106e682610b02565b602082019050919050565b6106fa8161091a565b82525050565b600061070c82846105d8565b915081905092915050565b60006107238284610609565b915081905092915050565b60006040820190506107436000830184610581565b818103602083015261075481610688565b905092915050565b60006020820190506107716000830184610590565b92915050565b60006020820190508181036000830152610791818461059f565b905092915050565b600060208201905081810360008301526107b2816106ab565b9050919050565b600060208201905081810360008301526107d2816106ce565b9050919050565b60006020820190506107ee60008301846106f1565b92915050565b60006107fe61080f565b905061080a8282610998565b919050565b6000604051905090565b600067ffffffffffffffff82111561083457610833610a70565b5b61083d82610a9f565b9050602081019050919050565b60008190508160005260206000209050919050565b600081519050919050565b600082825260208201905092915050565b600081905092915050565b60006108918261091a565b915061089c8361091a565b9250827fffffffffffffffffffffffffffffffffffffffffffffffffffffffffffffffff038211156108d1576108d0610a12565b5b828201905092915050565b60006108e7826108fa565b9050919050565b60008115159050919050565b600073ffffffffffffffffffffffffffffffffffffffff82169050919050565b6000819050919050565b82818337600083830152505050565b60005b83811015610951578082015181840152602081019050610936565b83811115610960576000848401525b50505050565b6000600282049050600182168061097e57607f821691505b6020821081141561099257610991610a41565b5b50919050565b6109a182610a9f565b810181811067ffffffffffffffff821117156109c0576109bf610a70565b5b80604052505050565b60006109d48261091a565b91507fffffffffffffffffffffffffffffffffffffffffffffffffffffffffffffffff821415610a0757610a06610a12565b5b600182019050919050565b7f4e487b7100000000000000000000000000000000000000000000000000000000600052601160045260246000fd5b7f4e487b7100000000000000000000000000000000000000000000000000000000600052602260045260246000fd5b7f4e487b7100000000000000000000000000000000000000000000000000000000600052604160045260246000fd5b6000601f19601f8301169050919050565b7f766f7465207265636f72646564207375636365737366756c7900000000000000600082015250565b7f696e76616c696420706172747900000000000000000000000000000000000000600082015250565b7f63616e20766f7465206f6e6c79206f6e63650000000000000000000000000000600082015250565b610b348161091a565b8114610b3f57600080fd5b5056fea2646970667358221220e25c29d2d957104a32a9ce337cc359dd70fb547e68ebeb24e0da068ec6b2370464736f6c63430008040033",
  "linkReferences": {},
  "deployedLinkReferences": {}
}